:020000040000fa
:10000000f07f0020e50800000b0b00006f0b0000e4
:1000100000000000000000000000000000000000e0
:1000200000000000000000000000000013060000b7
:10003000000000000000000013060000130600008e
:10004000130600001306000013060000e50600007a
:10005000130600001306000013060000130600003c
:10006000130600001306000013060000130600002c
:10007000130600001306000013060000130600001c
:10008000130600009d0b000013060000130600007d
:100090000d0b0000130600001306000013060000fd
:1000a000130600001306000013060000710b000089
:0c00b000130600001306000013060000f9
:020000040000fa
:1000bc00f8b5c046f8bc08bc9e467047c5080000a1
:1000cc00f8b5c046f8bc08bc9e4670479d080000b9
:020000040000fa
:1000dc0008d1002806d1f54204d801d3002a01d159
:1000ec006d0d09d10020c143090dc904f0bdf9d132
:1000fc001242f7d1640df5d00020c14349054908df
:10010c00a6e000206146f0bdf0b50127ff070e0008
:10011c005e403e40b446be0a4c18dd18f442d7d2bd
:10012c00f542e4d2640decd06d0dead06419c9022d
:10013c003943460dc0023143db023b43db0a10b4aa
:10014c008e4685b297b26f43140c6c433e0ca419c7
:10015c00260c2404bfb227439cb26c43a419190c7f
:10016c006943250ca4b249190d04090c6419000c3f
:10017c0095b245433e0c76193743bfb2360c150c7d
:10018c004543ad19a6b2240cad192e0437432e0ce1
:10019c0036199db24543ad19acb22e0c89191d0c04
:1001ac0045436d182e04290c3443704680b295b229
:1001bc0045433e0c76193743bfb2360c150c4543fc
:1001cc00ad19a6b2ad19240c2e0437432e0c3619da
:1001dc009db24543ad19acb22e0c89191d0c45438b
:1001ec006d182e043443290c75462d0c90b26843bf
:1001fc003e0c80190604bfb23e43070ca0b23f1858
:10020c00120c6a43d019020c80b2240ca4189ab2b6
:10021c006a43121914042043120c89181b0c6b43eb
:10022c00c91810bc01273d05294203d1b61940411c
:10023c004941013cff077d0d013d641b0bdb6d004b
:10024c00ac4209da240500254208be4168416141ef
:0a025c0066463143f0bd54e74ee75b
:020000040000fa
:020266007047df
:020000040000fa
:10026800394b5a6852031b68db0c13439b029b0ae9
:10027800364a936300235375110004228b691a428e
:10028800fcd132491022cb681a42fcd02f4a137d88
:1002980080210b4313752e4b00229a611a612d4b56
:1002a8002d4a1a62190004224b681a42fcd1294ac5
:1002b80088234021d15010004831402243581a4227
:1002c800fcd0244adc234021d15010009c3140222c
:1002d80043581a42fcd01f4af0234021d150100045
:1002e800b031402243581a42fcd01a4af823402120
:1002f800d1501000b831402243581a42fcd0154a58
:1003080082235b004021d15010001900402243583d
:100318001a42fcd00f4a88235b004021d1501000bc
:100328001900402243581a42fcd00a4a90235b0025
:100338004021d15010001900402243581a42fcd0e5
:10034800064b074ada6170472060800000100040c1
:1003580000140040001c0040060101000008004095
:04036800201232002d
:020000040000fa
:10036c001001002028000000000000000000002008
:10037c00c000000000000000380100201000000048
:10038c00000000005c0100200200000000000000e2
:10039c005001002004000000000000005e0100205d
:1003ac000c000000000000005401002004000000bc
:1003bc0000000000c0000020500000000000000001
:1003cc006c01002020000000010000000100000072
:1003dc00030000000000000000000000000000000e
:1003ec00000000000000000048010020480100202f
:1003fc00080000000000000058010020040000006c
:10040c000000000000000000000000006666666648
:020000040000fa
:10041c00002934d00123002210b488422cd30124ab
:10042c002407a14204d2814202d209011b01f8e740
:10043c00e400a14204d2814202d249005b00f8e7f9
:10044c00884201d3401a1a434c08a04202d3001b25
:10045c005c0822438c08a04202d3001b9c08224358
:10046c00cc08a04202d3001bdc082243002803d096
:10047c001b0901d00909e3e7101c10bc704701b53a
:10048c00002000f0f7fc02bd0029f8d003b5fff7ff
:0c049c00c1ff0ebc4243891a1847c0463d
:020000040000fa
:1004a80010b51c4a137801210b4313701100012267
:1004b8004b681a42fcd117490023cb6102330b6207
:1004c800db010b61144b10221a819a821a849a85d7
:1004d8001a8744201a520c301a520c301a520c3017
:1004e80008241c520c301a520c301a520c301a5272
:1004f8000c301a520c301a520c301a520c301a5254
:100508000b78022213430b7002224b681a42fcd16b
:0c05180010bdc04600280040000000207c
:020000040000fa
:10052400d0b500f09dfc00f057fc00f095fc154e92
:100534003400154f17e0144b00221a8000f07cfca5
:10054400032000f0b7fb114b188000f0c1fb104ae8
:10055400104bfff7ddfd00f091f80f4b186000f031
:1005640071fc00f031fc33889bb2012bf7d10023de
:10057400238000f03bfa3b889bb2f422ff32934283
:10058400ded9d8e7600100205e0100205c01002074
:0c059400b4d934e70c684a3f5001002045
:020000040000fa
:1005a00030b58223db05802212021a60012241212c
:1005b0005a5401315a5401315a5403315a540131b9
:1005c0005a5401315a540731022058540d315a54ab
:1005d0002c396e3058541f393f3819540230195491
:1005e000342404251d55002433355c5507355c55ee
:1005f000c6341a5502341a5501341a5501341a55a5
:1006000001341a55183c1a55b33299540132985492
:0206100030bdfb
:020000040000fa
:02061200fee701
:020000040000fa
:1006140010b5bff35f8f62b6164bc02189005a58dc
:100624001202120ac020000602435a5008221a601d
:10063400c424a4001a5910491140c02212020a43ca
:100644001a51802292021a60c52292009958ff24fe
:10065400a1433f3c21439950802252031a60c62192
:1006640089005a581202120a02435a508022120573
:0c0674001a6010bd00e100e0ff00ffff75
:020000040000fa
:100680004b1801225205da4217d25b0d0722d20124
:100690009b1a0fd9ff2b13d2db05ca0fd2071343c6
:1006a0000903020d1143490ac200524100d9013128
:1006b000c8187047c80fc007704706d1002804d17a
:1006c000c80f0002ff30c00570470123db070a0096
:1006d000c900400f084398431a4010435b0a18436f
:0206e000704761
:020000040000fa
:0206e20070475f
:020000040000fa
:1006e400f8b50024144d154e03e077610134102c45
:1006f40020d063001b199b00eb181b89dbb2e1b20d
:100704008b42f3d173690127a7401f42eed06300e7
:100714001b199b0008495b58002be6d008006300b6
:1007240019198900411849681b199b001b580800b6
:100734009847dae7f8bdc0460000002000280040d2
:020000040000fa
:1007440000230e4a10b513600d4a13600d4a13605e
:100754000d4a13600d4a13600d4a5362136101334d
:10076400936000f041fb00f04efb0a4c0a4b9c42a4
:1007740000d310bd08cc9847f8e7c04658010020c4
:10078400cc000020c8000020c0000020c4000020cd
:0c079400d0000020c8000000cc000000d5
:020000040000fa
:1007a000104a138801339bb213800f4a1388013318
:1007b0009bb213800d4b01221a800d4a138801331e
:1007c0009bb213800b4b1b889bb2fa2252009342c0
:1007d00000d07047074b00221a80024b01321a806a
:1007e000f7e7c0465e0100206401002060010020a0
:0807f0006801002062010020f5
:020000040000fa
:1007f800104b01221a6019008b681a42fcd10d4b6c
:10080800a02252011a6000225a6158690a4901431c
:1008180059610221d963094959649a64da641a65ed
:10082800074a1a6401229a621a009368002bfcd1c5
:100838007047c04600240042000f4040bd252600f6
:040848009f252600c2
:020000040000fa
:10084c00114b01221a7019000b8c1342fcd10f4b67
:10085c001b681a02e021c9000a409b065b0f1a4371
:10086c00094b9a8502225a7001325a7382329a705d
:10087c00843a1a8103325a8107229a711a00138c16
:10088c009bb2002bfbd170470044004220608000db
:020000040000fa
:10089c0010b5064c2378002b07d1054b002b02d04a
:1008ac00044800e000bf0123237010bd100100209c
:1008bc000000000000000000044b10b5002b03d01a
:1008cc000349044800e000bf10bdc0460000000012
:0808dc001401002000000000df
:020000040000fa
:1008e40010b50a4b98470a4b984700f0d5f8094bc6
:1008f400ff229343084a9360084b9847084b984754
:10090400084b984700f078fafee7c046e30600007b
:10091400e30600000000000000ed00e045070000d1
:08092400e3060000e3060000f9
:020000040000fa
:10092c0070b5002818d0002918d000250c4a0124d5
:10093c00072605e06b00c35a13850135a94209d07f
:10094c00137e2342fcd053683340012bf2d0435d1d
:10095c001385f2e7012070bd0020fce70120fae7c7
:04096c000014004231
:020000040000fa
:100970000c4b01221a6019000b691a42fcd1094b79
:1009800010221a600d3a1a73074a9a8333229a7218
:10099000064a0021116001225a721a001369002bc5
:1009a000fcd17047003000427fbbffff38010020c0
:020000040000fa
:1009b00010b50e4b06225a60fff7f2fdfff754fc0c
:1009c00000f030fafff74ffc00f04cf8fff76cfd39
:1009d00000f02cf8fff7ccff00f044f9fff70cff14
:1009e000fff734fffff716fe10bdc0460040004180
:020000040000fa
:1009f00010b50b4b1b889bb2f422ff3293420ed9e9
:100a0000074b00221a80074b1b88074a322093426b
:100a100001d8323398b2034b188000f083f910bd2f
:0c0a20006401002066010020ff030000bc
:020000040000fa
:100a2c000c4b01221a7019000b6a1a42fcd1094bab
:100a3c008c229201da61da6902210a43da6100221e
:100a4c00da7308325a7119701900063a0b6a1a4295
:080a5c00fcd17047005000427c
:020000040000fa
:100a64000a4b0b4a1a600b4a9a81c02292025a60be
:100a74001a00d369002bfcd1044a136802210b43ea
:100a84001360d369002bfcd17047c04600140042a8
:080a9400040121402bf6ffffd5
:020000040000fa
:100a9c0010b50b480168002905d14368002b02d121
:100aac0000f085f910bd04008368064a9bb20c3433
:100abc009b009b5842682000984780002018e9e76b
:080acc006c030000800d000026
:020000040000fa
:100ad40013b50b006a46d41d5a68c1b22170d20501
:100ae40005d55a69c0b2541c5c61117016bd01224f
:100af4002100180000f0abf9002801d02078f5e7b8
:060b040001204042f2e76f
:020000040000fa
:020b0a00fee704
:020000040000fa
:100b0c0010b50a4b5b7a002b0ed0084b987ac0b20a
:100b1c0033229a72064b1b68002b05d0002803d099
:100b2c00034b59681b68984710bdc0460030004203
:040b3c00380100205c
:020000040000fa
:100b400070b5140016000a004e430d00511e8a4174
:100b50005242144001003200180000f07af9864237
:0e0b600003d02900fff75afc0400200070bdee
:020000040000fa
:020b6e00fee7a0
:020000040000fa
:100b700010b5084b9968084ce279d2b21a7018780f
:100b8000c0b23f22a2715b68002b02d0014b5b68b0
:0c0b9000984710bd2c01002000500042ce
:020000040000fa
:100b9c0010b5064a5168064bd86a064cdc62db6a13
:100bac001368002b01d01368984710bd400100203a
:080bbc00002400420ffc0f00b1
:020000040000fa
:100bc40010b5084c2368196800f00ef801230028ba
:100bd40005db23680a20196800f04af9c30f58425c
:080be40010bdc046880100208d
:020000040000fa
:100bec0070b50e00050000f0aff8330004000200f1
:100bfc0001212800fff79eff001b431e9841404235
:020c0c0070bdb9
:020000040000fa
:100c0e00002310b5934206d103201840421e904196
:0e0c1e009b08c01810bdc45ccc540133f2e733
:020000040000fa
:100c2c00054a137802210b431370110002220b8c1e
:0c0c3c001342fcd17047c0460044004247
:020000040000fa
:100c4800054a137e02210b43137611008022d2003d
:0c0c58000b8c1342fcd17047004400429a
:020000040000fa
:100c6400054b09225a7000229a7002321a70190038
:0c0c74000b691a42fcd17047005400428a
:020000040000fa
:100c8000054a136802210b431360110002220b690d
:0c0c90001a42fcd17047c0460030004200
:020000040000fa
:100c9c0070b50d001400012801d0200070bd21009a
:0c0cac002800fff73dfe0028f9d0f6e715
:020000040000fa
:100cb80010b5054b1881fff7c3ff00f023f8002893
:0c0cc800fbd000f0a5f810bd0044004275
:020000040000fa
:100cd400054b004206d5404200b5984708bc0122a6
:0c0ce400d207114318470000f10c00007b
:020000040000fa
:100cf00042221201033a010007d002d4013a00183f
:0c0d0000fcd51205c30a40059918704785
:020000040000fa
:100d0c00044b9b7901221340181e01d0014b9a71a0
:080d1c007047c046004400428c
:020000040000fa
:100d24008005800d034b1881190004220b691a42b7
:080d3400fcd17047005400429d
:020000040000fa
:100d3c004441432076616c75652069732067726548
:080d4c00617465720d200000c6
:020000040000fa
:100d54000378002b06d0030001331a78002afbd154
:080d6400181a70470020fce79b
:020000040000fa
:100d6c0003494b78012282401343dbb24b7070472e
:040d7c0000500042e1
:020000040000fa
:100d8000a90d00000f0c00007d0e00007d0e00007c
:040d90007d0e0000d4
:020000040000fa
:100d940010b500f069f8024b1860586010bdc046e9
:040da40048010020e2
:020000040000fa
:100da8008a18914201d10020704700230b7001314d
:020db800f7e75b
:020000040000fa
:020dba00704780
:020000040000fa
:100dbc0010b50248fff700ff10bdc0463c0d000007
:020000040000fa
:100dcc0010b50021014800f01bf810bdbd0d00004e
:020000040000fa
:100ddc0010b50021014800f025f810bda107000056
:020000040000fa
:100dec0010b5fff7d1ff00f047f800f045f810bd43
:020000040000fa
:0e0dfc0010b50020fff7d6fdfff78efbfee7d7
:020000040000fa
:020e0a0070472f
:020000040000fa
:0c0e0c00014b5860996070472c010020d9
:020000040000fa
:0c0e1800014b988c80b2704700440042ef
:020000040000fa
:0c0e2400014b84225a60704700400041de
:020000040000fa
:0c0e3000014b1860596070473801002029
:020000040000fa
:0c0e3c008223db0580221202da6170477d
:020000040000fa
:0a0e480010b50320fff78eff10bd68
:020000040000fa
:0a0e520010b50068fff721ff10bd86
:020000040000fa
:080e5c0010b5fff7e5fe10bd23
:020000040000fa
:080e640010b5fff70bff10bdf4
:020000040000fa
:080e6c00004870476c010020f2
:020000040000fa
:080e740010b5fff72dfe10bdc3
:020000040000fa
:040e7c00002070479b
:020000040000fa
:040e80007047c046b1
:020000040000fa
:020e84007047b5
:020000040000fa
:0200000400807a
:04400000770800003d
:020000040000fa
:0200000400807a
:044004000000ffffba
:00000001FF
